:020000040000FA
:1000000060C40720E5000000E9000000EB000000EC
:10001000ED000000EF000000F10000000000000013
:10002000000000000000000000000000F3000000DD
:10003000F500000000000000F7000000B11500000E
:10004000FB000000FB000000FB000000FB000000C4
:10005000FB000000FB000000FB000000FB000000B4
:10006000FB000000FB000000FB000000FB000000A4
:10007000FB000000FB000000FB000000FB00000094
:10008000FB000000FB000000FB000000FB00000084
:10009000FB000000FB000000FB000000FB00000074
:1000A000FB000000FB000000FB000000FB00000064
:1000B000FB000000FB000000FB000000FB00000054
:1000C000FB000000FB000000FB000000DFF810D088
:1000D00001F012FC0048004777160000AFF30080E3
:1000E00060C4072005480047FEE7FEE7FEE7FEE79D
:1000F000FEE7FEE7FEE7FEE7FEE7FEE7CD000000D5
:1001000020207449086000BF7248006800F0400079
:100110000028F9D003206F499C39086000206E49FF
:10012000C1F8A8016B490C31086001206949943974
:1001300008606A486849843108600120091F086026
:10014000AA2065498C31086055206349C1F88C00AC
:1001500000BF61488830006800F080600028F8D057
:1001600003205D4980310860AA205B49C1F88C00FA
:10017000552059498C31086000205649983908604B
:1001800057485549C431086000205349C1F8C80197
:10019000514888300068C0F30160032860D14D48A1
:1001A0009438006800F0030030B1012820D0022804
:1001B00039D0032853D100E000BF47488830006899
:1001C000C0F30E00401C4000464948434249D1F864
:1001D0008810C1F30741491CB0FBF1F13D489C3840
:1001E0000068C0B2401CB1FBF0F03F49086036E047
:1001F000394888300068C0F30E00401C40003B497D
:1002000048433549D1F88810C1F30741491CB0FB78
:10021000F1F130489C380068C0B2401CB1FBF0F0EE
:10022000314908601BE02C4888300068C0F30E009C
:10023000401C40004FF4FA4148432749D1F8881048
:10024000C1F30741491CB0FBF1F122489C3800681A
:10025000C0B2401CB1FBF0F02349086000BF30E0A1
:100260001C489438006800F0030030B1012810D019
:10027000022819D0032823D100E000BF15489C387C
:100280000068C0B2401C1749B1FBF0F01649086085
:1002900016E010489C380068C0B2401C1349B1FBFE
:1002A000F0F0114908600BE00A489C380068C0B2C1
:1002B000401C4FF4FA41B1FBF0F00B49086000BF5D
:1002C00000BF0548006820F4704040F480400249B7
:1002D00008607047A0C10F4000C00F4063000500D8
:1002E000DE87280400093D0000C00720001BB7007E
:1002F00070470A68531C0B6010707047FFFFFFFFC8
:1003000010B500F0DEFF0020FE490870FE490870BD
:10031000FE490870FE49087010BDFC48007850B9CD
:10032000F948007820F00100F74908700120F749EA
:100330000870F749087070470020F64908700420DB
:10034000F5490870F048007840F00400EE49087064
:100350000846007840F008000870704710B5FF228A
:100360000621EE4801F078FAEC48ED490A68C0F839
:100370000620898841814FF4C160E84988814FF4A3
:100380008070C8810820088240F2064048824FF4FD
:10039000807088820846E2490A68C0F81620898879
:1003A0004183E0490968C161002101628184DE481E
:1003B0000088DC4909884840DC490988084040B980
:1003C000D9484088D74949884840D8494988084091
:1003D00028B1D248D6490968C0F8261004E0CF48B1
:1003E000D1490968C0F826102A20D2490870C548AA
:1003F000007840F00200C349087010BD10B5C34832
:10040000007818B1C1480078012814D1BE4800789E
:1004100040F00100BC4908700846007820F0020056
:100420000870FFF79BFF0020C3490870FFF784FFA7
:100430000120B749087010BDB4480078012806D0E3
:10044000022805D003280BD0042811D109E000BFF1
:100450000020AE490870AC490870AD49087007E04B
:1004600000BFA948007840F01000A749087000BFFD
:1004700000BF7047A648007820F00400A449087027
:10048000704700B5A1480078042803D09F48007841
:10049000072821D19E48007800F00800E0B19C4870
:1004A000007820F008009A490870A4480068A44920
:1004B00009880844A1490860A14800883630A1494C
:1004C00008809048007840F001008E4908700420B0
:1004D00099490870FFF730FF00BD1CB500F0EBFF35
:1004E000994908800621684600F0C9FF062197480F
:1004F00000F0C5FFBDF800004FF6FF71884209D13A
:10050000BDF80200884205D1BDF80400884201D13F
:1005100001201CBD0020FCE710B58A4801888C48EA
:1005200001F013F810BD0146081240EA012080B224
:10053000704770B505460B46164600228EB17948C5
:100540000088024477484088024477480088024483
:100550007548408802441846FFF7E5FF024402F55B
:10056000C0622C4604E034F8021B0A44981E83B291
:10057000012BF8DC0BB12078024402E090B200EBD2
:100580001242100C0028F9D1D04380B270BD0A0E7F
:1005900000F8012B0A0C00F8012B0A0A00F8012BC5
:1005A000017070470A1200F8012B0170704710B5F6
:1005B000674C00BF204667490A68026089888180CD
:1005C00057490A68C0F806208988418108202146D9
:1005D000888141F24500C88159480088283081B29D
:1005E00004F11000FFF7DEFF0020214648828882D8
:1005F0004FF4C860C882002008830846494909684A
:10060000C0F81A1048490968C0F81E1000221421C9
:100610000E30FFF78EFF214608834F48018804F112
:100620002200FFF7BFFF4D48018804F12400FFF7C7
:10063000B9FF4B48016804F12600FFF7A8FF4948BD
:10064000016804F12A00FFF7A2FF41F250002146A1
:10065000C88501200886002048868886384800889A
:10066000143081B2012204F12200FFF762FF21461B
:10067000488610BD10B52F480178284800F065FF66
:1006800010BD10B50446254832490A6802608988C1
:10069000818023490A68C0F80620898841810820A2
:1006A0001E49888141F24500C88104F0020018B15A
:1006B0004FF43050088203E04FF42050174908826D
:1006C00000201649488288824FF4C860C882002002
:1006D0000883084613490968C0F81A1012490968C6
:1006E000C0F81E10002214210E30FFF722FF0B4924
:1006F00008831948018809482230FFF753FF17483B
:10070000018831E03BC007203CC0072015C007200E
:1007100050C0072028C0072029C00720360200103B
:10072000F61D00002A1E00004CC007202E1E0000EF
:10073000321E00003AC0072016C0072020C0072044
:1007400040C0072038C007202AC007202CC007203F
:100750000000001046C0072042C0072044C0072008
:100760001CC0072024C00720F948FFF71BFFF948E9
:100770000168F748801CFFF70AFFF7480168F44852
:10078000801DFFF704FF0120F1492439088600206D
:100790004886888604F00200F0B144F4C0404FF669
:1007A000FF7101EA002044F4C04140EA2120E849F9
:1007B0002439C88540F20240C886012008870122FA
:1007C0001821E348801EFFF7B4FEE149243948862A
:1007D0003A20E249087018E044F4A0404FF6FF7157
:1007E00001EA002044F4A04140EA2120D8492439FC
:1007F000C88501221421D648801EFFF79AFED449ED
:10080000243948863620D5490870D548007840F00C
:100810000200D349087010BD0020D2490870D248A8
:10082000007800F00300012803D11020CF490870A0
:1008300002E02020CD4908700020CB4908707047A5
:10084000C948007820F00400C7490870704710B507
:10085000C748007805281AD2DFE800F003060A0E20
:100860001200FFF77BFD12E00220FFF70AFF0EE007
:100870001220FFF706FF0AE01120FFF702FF06E053
:10088000B748007840F00100B549087000BF00BFCC
:1008900010BD0020B749087070470020B5490870A6
:1008A000B148007840F00400AF490870084600786D
:1008B00020F00800087070472DE9F04700F0D1FDE6
:1008C000804600F0CEFD8246AB480088824501D0CC
:1008D000BDE8F08700F0C5FD070400F0C2FD074346
:1008E00000F0BFFD060400F0BCFD064300F0B9FDBA
:1008F000044604F470404FEAA029A0480088143848
:10090000A0EB090085B2B5F5807F00DDE0E7B9F125
:10091000140F04DDA9F1140188B200F0C2FD914862
:10092000007820B101282CD002286FD162E004F0B9
:10093000040028BB9248A0F80080924892490A68B7
:10094000026089888180914891490968016004F0BA
:10095000100028B17F4806600420FFF792FE0FE0E8
:1009600000207C49086078197B49086004F0030086
:1009700018B108460068401C08601420FFF781FE8B
:1009800090E104F00400A0BB7D48A0F800807D4801
:100990007D490A680260898881807C487C490968B1
:1009A000016004F0100028B16A4806600420FFF7D7
:1009B00068FE1EE004F00200D8B1781C66490860A9
:1009C000744801884FF04020806861F31F406149FE
:1009D000086008460068401C6F4908601220FFF755
:1009E00050FE022062490870FFF7A6FC03205D4913
:1009F000087057E104226649644800F03FFF00B1E7
:100A000050E15F480088804501D04BE150E004F0A0
:100A1000100060B160480068864208D004F004000D
:100A200020B94C4806600420FFF72BFE3AE104F0A1
:100A3000040058B104F0100038B100204949087092
:100A4000494908703020494908702BE104F0020040
:100A5000F8B1414807600068401C3F49086004F055
:100A60001000B8B1FFF7ECFE4B4800683949086048
:100A70001020FFF706FE04203A4908703B48007832
:100A800040F00200394908700846007840F008003C
:100A900008700CE0FFF7D4FE1220FFF7F2FD0220F1
:100AA00033490870FFF748FC03202E490870F9E02D
:100AB00004223749354800F0E1FE00B1F2E0304849
:100AC0000088804500D0EDE023480068874200D0D0
:100AD000E8E004F0040040B10020224908702249F7
:100AE0000870302021490870DCE004F0020058B1A1
:100AF0000420FFF7C6FD00201A4908701A49087043
:100B000040201A490870CDE004F0100000B9C9E097
:100B100021480068864266D1FFF792FE1E480068B1
:100B20000C4908600F480078C01E082850D2DFE842
:100B300000F0044F354F4F393D49042009490870F2
:100B40000A48007840F002000849087040E00000C0
:100B50005A0200101CC0072024C007203AC00720FA
:100B60003BC0072015C007203CC0072050C007200D
:100B700016C0072028C0072042C0072036C0072023
:100B800044C0072046C007202CC007204CC00720C7
:100B900032C0072018C0072020C007200620FE49C9
:100BA000087015E00A20FC49087011E00020FA499D
:100BB0000870FA490870FA48007800F00400F84913
:100BC000087005E01020FFF75CFDFFF762FE00BF34
:100BD00000BFF1480078042805D1F148007840F0C2
:100BE0000800EF490870EC480078042807D0EA486C
:100BF0000078052803D0E848007806281CD1DDB12C
:100C0000E748007800F00400B0B9062000F049FC85
:100C10002946E44800F033FCE3480580E0480078CA
:100C200040F00400DE490870E04800682844DF49CD
:100C300008601020FFF725FD04F0010088B3D648B6
:100C40000078C01E082823D2DFE800F0040509134D
:100C50002222221F00BF0720CF49087018E0082079
:100C6000CD490870CE48007820F00200CC490870C9
:100C70000EE0FFF712FE0A20C7490870C848007846
:100C800020F00200C649087002E0FFF702FE00BF34
:100C900000BFC6480068401CC44908601020FFF728
:100CA000F0FC00BF00BF00BF12E610B5C0480088CE
:100CB0003C2801DD242403E0BD480088183884B2B4
:100CC000BC48BD490A68026089888180BB490A68BE
:100CD000C0F80620898841810820B64988814520CE
:100CE000C88104F1180081B2B2481030FFF75AFCF5
:100CF0000020B049488288824FF4A070C88200204A
:100D000008830846AE490968C0F81A10AD49096859
:100D1000C0F81E10002214210E30FFF70AFCA5496E
:100D200008830020488488842146A248263000F0A9
:100D3000A6FB201D81B200229E482230FFF7F9FB5E
:100D40009C49888404F126009F4908709F480078D8
:100D500040F002009D49087010BD10B500F081FB05
:100D6000044600F07EFB2012082802D1FFF79DFF09
:100D700000BF00BF10BD38B500F073FBB0F5006FC9
:100D800029D0A0F6060000285AD18448007800F047
:100D9000030001281ED100F064FB01281AD100F0E5
:100DA00060FBB0F5006F15D100F05BFB40F2046111
:100DB00088420FD100F055FB02280BD1FFF740FD10
:100DC0000621834800F05BFB7448007840F0020085
:100DD0007249087034E000F044FB00F47F40B0F545
:100DE0008A4F2CD100F03DFB7149088000F039FB9F
:100DF00000F037FBC0F30D0008BB00F032FBC4B2BB
:100E000000F02FFB04216F4800F039FB04216846F5
:100E100000F035FB04226946694800F02FFD70B9E7
:100E2000012C04D0062C05D0112C07D105E0FFF7CA
:100E300094FF03E0FFF740FD00E000BF00BF00BFEC
:100E400000BF38BD5B485C490A68026089888180C0
:100E50005A490A68C0F80620898841814FF4C16068
:100E6000544988814FF48070C8810820088240F27C
:100E7000064048824FF40070888208464F490A684D
:100E8000C0F81620898841834D490968C1614A49E3
:100E90000A680262898881844A490968C0F8261074
:100EA0002A20494908704948007840F00200474923
:100EB0000870704708B500F0D4FA40F60601884281
:100EC00028D100F0CEFA012824D100F0CAFAB0F5FA
:100ED000006F1FD100F0C5FA40F20461884219D1B9
:100EE00000F0BFFA012815D1062000F0DAFA04213B
:100EF000344800F0C4FA062000F0D3FA0421684612
:100F000000F0BDFA042269462D4800F0B7FC08B98C
:100F1000FFF798FF08BD10B500F0EDFA48B1FFF7F4
:100F2000DCFA10B1FFF7C6FF01E0FFF724FF00F085
:100F3000D6FA1A48007800F0040048B31748007841
:100F400000F00800A8B123480078082820DDFFF74A
:100F5000A0FC2148007838B1FFF779FC1E480078E2
:100F6000401E1D49087013E0FFF76AFCFFF754FCB0
:100F70000EE01848007802280ADD002006490870B3
:100F8000064908700648007800F00400044908701B
:100F900001480078082821E015C007203CC0072040
:100FA00050C00720800200103EC0072024C0072048
:100FB00036C00720360200102CC00720F61D0000A6
:100FC0002A1E000032C007203AC007203BC007207D
:100FD00046C0072028C0072029C0072074D2DFE8B8
:100FE00000F0040573353673735700BF5C48007812
:100FF00000F0010048B35A48007800F0020020B326
:101000005848007800F00200F8B9574801884FF0BE
:101010004020806861F31F4054490860084600681A
:101020005349086000205349086051480068401C3B
:101030004F4908600220FFF724FB01204E49087049
:10104000FFF77AF902204D4908703DE000BF44489F
:10105000007800F01000D0B14248007800F00300A2
:10106000A8B9424800684249096888420FD14048FF
:101070000068401C3E4908601120FFF702FB032076
:101080003D490870FFF758F905203C4908701BE0FE
:101090003448007800F00300A8B9344800683449A7
:1010A000096888420FD132480068401C3049086006
:1010B0001120FFF7E6FA03202F490870FFF73CF9EB
:1010C00009202E49087000BF00BF2648007800F0B4
:1010D0000200C0B12A48007800F01AFA00F02AFA9B
:1010E00010B1FFF7C7FA08E000202449087050202B
:1010F0002449087000201A4908701A48007820F026
:101100000200184908701748007800F00100D0B1BB
:10111000FFF74DFA1C48008800F0FAF900F00AFACF
:1011200010B1FFF7F9F908E00020144908705020C9
:101130001449087000200A4908700A48007820F015
:1011400001000849087010BD07480088401C064986
:1011500008800E480078401C0C4908707047000059
:101160003CC007203BC0072018C007201CC0072038
:1011700020C0072024C0072016C0072015C0072064
:101180003AC0072050C0072038C0072028C00720D9
:1011900010B540F480734FF0A044A3622346D96297
:1011A000002200BF07E04FF0A0435B6B03F0010398
:1011B00003B903E0521CB2F5A02FF4D300BF10BD59
:1011C000014641F480704FF0A043986201205862BC
:1011D000002200BF07E04FF0A040406B00F001008C
:1011E00000B903E0521CB2F5A02FF4D300BF0020D9
:1011F0004FF0A04358621846006B80B27047002041
:101200001BE0E0494FF4C06202FB0012C10001F193
:101210008051C1F80025DC4AC10001F18051C1F8BC
:1012200004250022C10001F18051C1F82025C10030
:1012300001F18051C1F82425401C0428E1D3D14993
:101240005839D24A1160CF4938394FF0A042C2F81C
:101250000C110321CD4A0832116000214FF0A04249
:10126000C2F818117047002015E0C9494FF4C06258
:1012700002FB0012C10001F18051C1F8402500229B
:10128000C10001F18051C1F84425810001F1805174
:10129000C1F85025401C0228E7D3BA491839BB4A87
:1012A00014321160B74908390A06C2F82011012129
:1012B000B64A1C32116000214FF0A042C2F828113A
:1012C0007047F0B5B348006840F08040B149C43978
:1012D000C1F8C400B048B14988600846C06820F031
:1012E0000F00401DC8604FF44F404FF0A041086010
:1012F0007820A64908390860642400E0641E002CA8
:10130000FCD102204FF0A04108603020486040012D
:10131000486143F20F7008611220C86040019B4988
:1013200008390860C9010020FFF732FF00BF08E05C
:101330000020FFF745FF054605F4004000B903E033
:10134000641CB4F5801FF3D300BF0220FFF738FF01
:1013500007460320FFF734FF06464FF6F070304093
:1013600040EA07408E49884213D14FF44051002093
:10137000FFF70EFF002408E00120FFF721FF0546DC
:1013800005F0200000B103E0641CB4F5801FF3D326
:1013900000BF002408E01020FFF712FF054605F00B
:1013A000010000B103E0641CB4F5803FF3D300BF3B
:1013B00005F0040088B14FF0A040406840F0010003
:1013C0004FF0A041486071480838006840F48060E0
:1013D000C1F800011520886003E012204FF0A04101
:1013E000886005F0020020B100204FF0A041886124
:1013F00004E04FF480704FF0A041886141F6306006
:101400004FF0A041086446F6A240486444F25F50A1
:101410008864FFF7F4FEFFF726FF22205B49F831CE
:10142000086088205F4908604FF6FF70091D08605A
:101430004FF0A040D0F8000140F003004FF0A04171
:10144000C1F800010846006840F001000860F0BDE6
:1014500055480068008854490968891C524A11603F
:10146000704710B55049096808884F490968891CB8
:101470004D4B1960FFF757F80446204610BD30B5B4
:1014800005460B462C4605E0FFF7E2FF24F8020B69
:10149000981E83B2012BF7DC13B1FFF7D9FF207040
:1014A00030BD00B5034603E0FFF7D2FF981E83B2BC
:1014B000012BF9DC00BD354A10321168CA0002F177
:1014C0008052B2F82025C2F30A02D21E90B2CA009E
:1014D00002F18052D2F80025334B1A6070472B4935
:1014E00010310868411C0846042900D10020274912
:1014F00010310860704725480C3000684FF0A0415B
:10150000D1F81811884201D0012070470020FCE773
:101510001E4A20321168CA0002F18052D2F84025DA
:10152000224B1A6040F08043CA0002F18052C2F898
:1015300044357047012070471C49096808801B49E1
:101540000968891C194A1160704770B504460B463A
:101550002646581C4FF6FE7100EA010304E036F8F7
:10156000020BFFF7E9FF9B1E002BF8D10748203044
:101570000568681C0546022800D100250348203074
:10158000056070BD58050010FF050080080100507F
:10159000581D0010C4C00F400501155000C0024086
:1015A000905C0020E40F005004C0072008C0072012
:1015B00010B595480068401C9349086008460068CB
:1015C000142809D3002008609048406D80F0800006
:1015D0008E494865FFF7B8FD10BD8D49096841F097
:1015E00080718B4A116000BF8949496801F0004150
:1015F0000029F9D086494968C1F30B10844909686C
:1016000021F0E061824A1160704738B500200090F7
:101610008048007800F0020060B37E48007800F057
:10162000080038B3FFF7D9FF054601240AE0601E21
:10163000012101FA00F09DF800100843C0B20090AB
:10164000601CC4B2B4EB652FF1DD7048406D00F052
:1016500080009DF8001001F07F0108436B49486548
:101660006D489DF8001080F8361001206B49088005
:10167000FEF707FF38BDFEF743FD6949481EB0F18C
:10168000807F00D31BE0481E4FF0E02250615017CE
:101690001F22002804DBD3061C0E624B1C5406E0FC
:1016A000D3061D0E604B00F00F04241F1D5500BF14
:1016B00000204FF0E02290610720106100BF5348E6
:1016C000006840F40010514908600846406940F441
:1016D000001048610846006C40F0FF000864534861
:1016E000C06840F040405149C8605148006840F42B
:1016F00080504F49C439C1F8C4004E48444908607D
:10170000FEF7FEFDC0204C490870A820487001205B
:1017100088708620C87041F6BE1048490880401E77
:101720004749088013E03B48007800F0020050B9B8
:10173000FEF764FE01E0FFF7EEFB3648007800F0AC
:1017400002000028F7D0FFF7E6FBFFF75EFFEAE7AD
:101750007CB532480088042800DA7CBD2E4C363433
:10176000002549E02078412844D16078442841D1BF
:10177000E07825283ED1A078312827D0372811D00D
:10178000382836D1FFF729FF2E49086008462EA1D8
:101790000268684600F0E2F8009820609DF80400B6
:1017A000207126E0274800686421484340F6B8715C
:1017B000B0FBF1F6324626A1684600F0CFF8BDF83E
:1017C000000020809DF80200A07012E0214800680F
:1017D000401C2049024608601DA1684600F0BEF882
:1017E000BDF8000020809DF80200A0702020E0706D
:1017F00000BF00BF641C6D1C08480088C01EA842C2
:10180000B0D800BFA9E700005CC0072000C00920D5
:101810000040034050C007200000001040C00720D7
:1018200040420F0000E400E018ED00E000C002407C
:10183000C4C00F40200420004CC0072042C0072035
:1018400044C0072058C007203078253033580000A6
:101850002533750054C00720D2B201E000F8012BF7
:10186000491EFBD270470022F6E710B513460A4620
:1018700004461946FFF7F0FF204610BD30B5044678
:101880000020034600E05B1C934203D2E05CCD5C89
:10189000401BF8D030BD2DE9F05F05460020924690
:1018A0009B4688460646814640241BE02846414622
:1018B0004746224600F041F853465A46C01A914125
:1018C00010D311461846224600F028F82D1A67EB6F
:1018D00001084F4622460120002100F01FF817EBB7
:1018E00000094E41201EA4F10104DFDC48463146C8
:1018F0002A464346BDE8F09F064C074D06E0E068E7
:1019000040F0010394E8070098471034AC42F6D346
:10191000FEF7E0FBC4230000F4230000202A04DBD0
:10192000203A00FA02F1002070479140C2F12003F2
:1019300020FA03F3194390407047202A04DB203A31
:1019400021FA02F00021704721FA02F3D040C2F1DF
:101950002002914008431946704700000FB4084B1D
:1019600010B504A902AA039800F01AF8044602A9C7
:101970000020FEF7BEFC204610BC5DF814FB000002
:10198000F302000002E008C8121F08C1002AFAD1C1
:101990007047002001E001C1121F002AFBD17047EF
:1019A0002DE9FF4F8DB00F460546002606E025289D
:1019B0000BD0DDE90F1290476D1C761C28780028AB
:1019C000F5D111B03046BDE8F08F0024A246A14603
:1019D0000122E94900E0044315F8013F203B02FAE7
:1019E00003F00842F7D128782A2810D06FF02F0290
:1019F0002878A0F13001092914D80AEB8A0102EBFA
:101A0000410144F0020400EB010A6D1CF0E701CF34
:101A10005FEA000A03D544F40054CAF1000A44F016
:101A200002046D1C28782E2817D115F8010F44F0F8
:101A300004042A280ED06FF02F022878A0F130017C
:101A400009290AD809EB890102EB410100EB0109E0
:101A50006D1CF2E757F8049B6D1C28786C280FD09A
:101A600006DC4C2817D068280DD06A2814D104E071
:101A7000742810D07A280FD10DE044F400140AE045
:101A800044F4801401E044F440146978814202D1A6
:101A900004F580146D1C6D1C28786E281ED00CDC9B
:101AA000632830D004DC00288BD0582811D19FE067
:101AB000642867D069280CD164E073282DD004DC39
:101AC0006F2872D0702804D194E075286ED07828E1
:101AD0006DD0DDE90F129047761C4BE1C4F3025044
:101AE000022806D0032809D0042801CF09D00660B7
:101AF00040E101CFF117C0E900613BE101CF068071
:101B000038E1067036E117F8040B8DF8000000206C
:101B10008DF80100EB46012003E057F804BB4FF0BD
:101B2000FF3061074FF0000102D40DE008F1010120
:101B3000884649450FDA8045F8DB1BF80810002974
:101B4000F4D108E008F1010188468142FADB1BF874
:101B500008100029F6D1DDE90F23AAEB0800814621
:101B6000214600F031F9304400EB080604E0DDE9DD
:101B70000F121BF8010B9047B8F10108F7D221466C
:101B80004846F2E00A21C4F302524FF0000B0891DC
:101B9000022A04D001CFC117032A09D00AE0FF1D91
:101BA00027F00707F7E8020108E02CE01EE01FE03D
:101BB00000B2C117042A01D140B2C117021E71F14F
:101BC000000206DA0023D0EB030063EB01012D22B3
:101BD00002E0220504D52B228DF82420012203E007
:101BE000E20701D02022F7E7904653E00A210BE0FC
:101BF000102109E010214FF0000B44F004044FF0D5
:101C00000809089103E008214FF0000B0891C4F384
:101C10000252022A04D001CF0021032A06D006E096
:101C2000FF1D27F00707F7E8020103E080B2042A4E
:101C300000D1C0B24FF0000822072BD52A78702AB5
:101C400007D0DDF820C08CF0100C5CEA0B0C05D03E
:101C50000EE040228DF82420012208E050EA010322
:101C600006D030238DF824308DF8252002229046AE
:101C7000089B83F0080353EA0B030BD150EA0102DF
:101C800001D1620706D530228DF824204FF00108DB
:101C9000A9F101092A78582A04D038A20B9208AA7F
:101CA0000A920BE03AA2F9E75B46089AFFF7F3FDC8
:101CB0000B9B9B5C0A9A521E0A92137050EA010217
:101CC000F2D10A98ADEB000000F1200B600702D5BD
:101CD00024F4803401E04FF00109D94502DDA9EB7D
:101CE0000B0000E0002000EB0B0141440890AAEB40
:101CF000010AE00306D4DDE90F232146504600F037
:101D000063F806444FF0000908E009A911F809003A
:101D1000DDE90F12904709F10109761CC145F4DB9A
:101D2000E0030CD5DDE90F232146504600F04CF8C6
:101D3000064404E0DDE90F1230209047761C089934
:101D4000481E08900029F5DC08E00A980A990078F6
:101D5000491C0A91DDE90F129047761CBBF1000186
:101D6000ABF1010BF1DC21465046DDE90F2300F019
:101D700019F806446D1C21E6092801003031323380
:101D800034353637383961626364656600000000B7
:101D900030313233343536373839414243444546A1
:101DA000000000002DE9F041044600251E461746BC
:101DB000880404D405E039462020B0476D1C641E19
:101DC000F9D52846BDE8F0812DE9F041044600250B
:101DD0001E469046C80301D5302700E0202788041E
:101DE00004D505E041463846B0476D1C641EF9D560
:101DF0002846BDE8F0815F45A26C301E485454501F
:101E00002F312E3020323030204F4B0D0A436F6E71
:101E100074656E742D547970653A20746578742FEA
:101E200068746D6C0D0A0D0A0000C0A801EAFFFF7E
:101E3000FF00C0A801FE3C68746D6C3E0D0A3C6852
:101E40006561643E0D0A3C6D657461206874747050
:101E50002D65717569763D227265667265736822BB
:101E600020636F6E74656E743D2235223E0D0A3C10
:101E70007469746C653E65617379574542202D2005
:101E800064796E616D696320576562736964653C4E
:101E90002F7469746C653E0D0A3C2F686561643E61
:101EA0000D0A0D0A3C626F6479206267636F6C6F84
:101EB000723D2223333033304130222074657874F0
:101EC0003D2223464646463030223E0D0A3C703EB7
:101ED0003C623E3C666F6E7420636F6C6F723D2295
:101EE00023464646464646222073697A653D223699
:101EF000223E3C693E48656C6C6F20576F726C6483
:101F0000213C2F693E3C2F666F6E743E3C2F623E33
:101F10003C2F703E0D0A0D0A3C703E3C623E5468F8
:101F2000697320697320612064796E616D69632033
:101F30007765627369746520686F73746564206285
:101F4000792074686520656D6265646465642057F6
:101F500065627365727665723C2F623E203C623E1C
:101F6000656173795745422E3C2F623E3C2F703E8F
:101F70000D0A3C703E3C623E486172647761726556
:101F80003A3C2F623E3C2F703E0D0A3C756C3E0D74
:101F90000A3C6C693E3C623E4C616E645469676504
:101FA00072204C50433137363820626F6172642E94
:101FB0002041524D204D3320436F7274657820725A
:101FC000756E6E696E6720456173795765623C2F47
:101FD000623E3C2F6C693E0D0A3C6C693E3C623EA1
:101FE000456D62656464656420454D4143204574D8
:101FF0006865726E657420436F6E74726F6C6C6589
:10200000723C2F623E3C2F6C693E0D0A3C6C693E6F
:102010003C623E7777772E506F7765724D43552E31
:10202000636F6D3C2F623E3C2F6C693E0D0A3C6C29
:10203000693E3C623E7777772E506F7765724156E6
:10204000522E636F6D3C2F623E3C2F6C693E0D0A31
:102050003C2F756C3E0D0A0D0A3C703E3C623E41C1
:102060002F4420436F6E76657274657220496E70DE
:1020700075742035202D20504F54313A204144387A
:1020800025203C2F623E3C2F703E0D0A0D0A3C7409
:1020900061626C65206267636F6C6F723D222366BC
:1020A00066303030302220626F726465723D2235B6
:1020B000222063656C6C70616464696E673D2230D8
:1020C000222063656C6C73706163696E673D2230BA
:1020D000222077696474683D22353030223E0D0A33
:1020E0003C74723E0D0A3C74643E0D0A3C7461629D
:1020F0006C652077696474683D224144372522204D
:10210000626F726465723D2230222063656C6C7070
:10211000616464696E673D2230222063656C6C7374
:10212000706163696E673D2230223E0D0A3C747215
:102130003E3C7464206267636F6C6F723D22233093
:102140003066663030223E266E6273703B3C2F74E0
:10215000643E3C2F74723E0D0A3C2F7461626C65C4
:102160003E0D0A3C2F74643E0D0A3C2F74723E0DE6
:102170000A3C2F7461626C653E0D0A0D0A3C746165
:10218000626C6520626F726465723D223022207736
:10219000696474683D22353430223E0D0A3C747205
:1021A0003E0D0A3C74642077696474683D223135C1
:1021B00025223E30563C2F74643E0D0A3C74642048
:1021C00077696474683D22313525223E302E3556BC
:1021D0003C2F74643E0D0A3C746420776964746813
:1021E0003D22313525223E31563C2F74643E0D0A86
:1021F0003C74642077696474683D22313525223E41
:10220000312E35563C2F74643E0D0A3C74642077A1
:10221000696474683D22313525223E32563C2F7464
:10222000643E0D0A3C74642077696474683D223111
:102230003525223E322E35563C2F74643E0D0A3C25
:1022400074642077696474683D22313525223E33F9
:10225000563C2F74643E0D0A3C2F74723E0D0A3CAE
:102260002F7461626C653E0D0A0D0A3C62723E3C41
:1022700062723E3C62723E3C62723E0D0A3C746188
:10228000626C6520626F726465723D223022207735
:10229000696474683D22353030223E0D0A3C747208
:1022A0003E0D0A3C74642077696474683D223130C5
:1022B00025223E3C2F74643E0D0A3C7464207769ED
:1022C0006474683D22343525223E0D0A3C746162F7
:1022D0006C65206267636F6C6F723D2273696C7608
:1022E00065722220626F726465723D22352220631E
:1022F000656C6C70616464696E673D223022206396
:10230000656C6C73706163696E673D223022207763
:10231000696474683D22323530223E0D0A3C747285
:102320003E0D0A3C74643E0D0A3C703E3C623E3CED
:10233000666F6E7420636F6C6F723D222346464653
:10234000464646222073697A653D2236223E3C6924
:102350003E5061676520436F756E743A2041443189
:10236000253C2F693E3C2F666F6E743E3C2F623ECB
:102370003C2F703E0D0A3C2F74643E0D0A3C2F74B6
:10238000723E0D0A3C2F7461626C653E0D0A3C2F53
:1023900074643E0D0A3C2F74723E0D0A3C2F74612A
:1023A000626C653E0D0A0D0A0D0A0D0A3C2F626F24
:1023B00064793E0D0A3C2F68746D6C3E0D0A0D0A5F
:1023C00000000000F423000000C0072060000000AF
:1023D00084190000F42300000000001080040000B5
:1023E000921900005424000060C00720000400007F
:1023F0009219000000093D000000000000000000EC
:1024000000000000000000000000000000000000CC
:1024100000000000000000000000000000000000BC
:1024200000000000000000000000000000000000AC
:10243000000000000000000000000000000000009C
:102440000000000000000000640000000000000028
:042450000000000088
:04000005000000CD2A
:00000001FF
